:020000040800F2
:10000000A00B0020F16E0008956D0008976D0008A8
:10001000996D00089B6D00089D6D000800000000B0
:100020000000000000000000000000009F6D0008BC
:10003000A16D000800000000A36D0008A56D000878
:10004000896F00088D6F0008916F0008956F000898
:10005000996F00089D6F0008A16F0008AD6D000842
:10006000A56F0008A96F0008AD6F0008B16F000808
:10007000B56F0008B96F0008BD6F0008C16F0008B8
:10008000C56F0008C96F0008CD6F0008D16F000868
:10009000D56F0008D96F0008DD6F0008E16F000818
:1000A000E56F0008B76D0008E96F0008ED6F000804
:1000B000F16F0008F56F000800000000F96F0008FC
:1000C000FD6F000800000000000000000170000843
:1000D0000000000005700008097000080000000022
:1000E0000D70000811700008157000080000000075
:1000F0000000000000000000000000000000000000
:1001000000000000000000000000000000000000EF
:1001100000000000000000000000000000000000DF
:10012000E003E003E003E003E003E003E003E003B7
:10013000C003C003C001C001C001C001C001000074
:1001400000000000E003E003E00300000000000006
:10015000000000003C1E3C1E3C1E3C1E3C1E3C1E83
:100160003C1E000000000000000000000000000035
:10017000000000000000000000000000000000007F
:100180000000000000000000CE01CE03DE039E034D
:100190009C039C07FF3FFF7F3807380F780F780FCD
:1001A000780EFFFFFFFFF01EF01CE01CE03CE03D7E
:1001B000E03900000000000000000000001F803B4C
:1001C000C079E070E070E070E070E070C079803B72
:1001D000001F000000000000000000000000000000
:1001E000000000000000000000000000000000000F
:1001F000033E07F78FE78EE39EE3BCE3B8E3F8E73F
:10020000F0F7E03FC001FE03FF07F307F30FF31E13
:10021000F33CF338F3787FF03EE00000000000008C
:1002200000000000E007F80F780F781F781F781F94
:10023000780FF00FE00F801FC37FC3FBE7F3F7F1E8
:10024000F7F0FFF07FF03EF87F7CFF3FEF1F0000EC
:100250000000000000000000E003E003E003E00312
:10026000E003C003C0010000000000000000000027
:10027000000000000000000000000000000000007E
:100280000000000000000000000000003F007C00B3
:10029000F001E001C003C00780078007800F000F56
:1002A000000F000F000F000F000F800F8007800766
:1002B000C007C003E001F0017C003F000F00000018
:1002C000007E001FC007C003E001F001F000F00055
:1002D000F800780078007800780078007800F8005E
:1002E000F000F000F001E001C003C007001F007E35
:1002F00000780000E003C003C001CE39FF3F7F3F1C
:1003000020037003F807780F3C1F38060000000038
:1003100000000000000000000000000000000000DD
:1003200000000000000000000000000000000000CD
:1003300000000000C001C001C001C001C001C00137
:10034000C001FFFFFFFFC001C001C001C001C0012B
:10035000C0010000000000000000000000000000DC
:10036000000000000000000000000000000000008D
:100370000000000000000000000000000000E0039A
:10038000E003E003E003E001E001E001C0018003DD
:10039000000000000000000000000000000000005D
:1003A000000000000000FE3FFE3F000000000000D3
:1003B000000000000000000000000000000000003D
:1003C000000000000000000000000000000000002D
:1003D000000000000000000000000000000000001D
:1003E000000000000000E003E003E003E003000081
:1003F00000000000000000000F000F001E001E00A3
:100400003C003C0078007800F000F000E001E001E2
:10041000C003C00380078007000F000F001E001EEE
:10042000003C003C0078007800F00000F007F80F76
:100430007C1F3E3E1E3C1F7C1F7C0F780F780F7880
:100440000F780F780F780F781F7C1F7C1E3C3E3E84
:100450007C1FF80FF0070000000000000000000003
:10046000F000F007F03FF03FF001F001F001F00183
:10047000F001F001F001F001F001F001F001F001F4
:10048000F001F001F001FF3FFF3F0000000000001D
:1004900000000000E00FF83F7C3C3C003E003E00C6
:1004A0003E003C003C007C00F800F001E003C00787
:1004B0008007000F001E003E003CFE3FFE3F000094
:1004C0000000000000000000F00FF81F7C1C3E0040
:1004D0003E003E003C003C00F800F00FF80F7C00AE
:1004E0003E001E001E001E001E003E007C1CF81F69
:1004F000E01F000000000000000000007800F8008D
:10050000F800F801F803F807F807780F781E781E4E
:10051000783C78787878FFFFFFFF780078007800E3
:100520007800780078000000000000000000000063
:10053000FC1FFC1FFC1F001E001E001E001E001ED4
:10054000E01FF81FFC007C003E003E001E003E0045
:100550003E003C007C1CF81FE01F00000000000073
:1005600000000000FC01FE078E0F001F001E003E71
:10057000003C003CF83DFC3F3E7F1F7E0F3C0F3CA3
:100580000F3C0F3C0F3E1F1E3E1FFC0FF0030000F0
:100590000000000000000000FF3FFF3FFF3F0F0092
:1005A0001E001E003C0038007800F000F000E00162
:1005B000E001C003C0038007800F800F000F001F01
:1005C000001F00000000000000000000F807FC0F02
:1005D0003E1F1E1E1E3E1E3E1E1E3C1FF80FF00735
:1005E000F80FFC1E3E3E1F3C1F7C0F7C0F7C1F3C07
:1005F0003E3FFC1FF007000000000000000000006C
:10060000F007F80F7C1E3E3C1E3C1F7C1F7C1F7CAD
:100610001F7C1F3C3F3EFF1FEF071F001E001E00F8
:100620003E003C00F838F03FE01F000000000000F2
:1006300000000000000000000000000000000000BA
:10064000E003E003E003E00300000000000000001E
:10065000000000000000E003E003E003E00300000E
:10066000000000000000000000000000000000008A
:1006700000000000E003E003E003E00300000000EE
:1006800000000000000000000000E003E003E003C1
:10069000E003E001E001E001C0038003000000008E
:1006A000000000000000000003000F003F00FC00FD
:1006B000F003C00F003F00FE003FC00FF003FC003E
:1006C0003F000F00030000000000000000000000D9
:1006D000000000000000000000000000000000001A
:1006E00000000000FFFFFFFF000000000000FFFF10
:1006F000FFFF0000000000000000000000000000FC
:1007000000000000000000000000000000000000E9
:1007100000E000F8007E801FE007F8017E001F0067
:100720007E00F801E007801F007E00F800E0000076
:100730000000000000000000F01FFC3F3E381F38A2
:100740001F381E001E003C007800F000E001C003CE
:10075000C003C007C007000000000000C007C007BA
:10076000C00700000000000000000000F803FE0FBA
:100770001E1F0F3E7F3CFF78EF79C773C7F38FF3DF
:100780008FF38FF39FF39FF3FF73FF7BF779003CA9
:100790001C1FFC0FF8030000000000000000000018
:1007A000000000000000E003E003F007F007F0079E
:1007B000780F780F7C0E3C1E3C1E3E3CFE3FFF3FF8
:1007C0001F780F780FF007F007F00000000000001E
:1007D00000000000000000000000F83FFC3F3E3C2D
:1007E0001E3C1E3C1E3C3E3C7C3CF03FF83F7E3CA9
:1007F0001F3C1F3C0F3C0F3C1F3CFE3FF83F0000DE
:100800000000000000000000000000000000FF01E8
:10081000FF07871F003E003C007C007800780078CE
:1008200000780078007C007C003E003F831FFF07BB
:10083000FF010000000000000000000000000000B8
:100840000000F07FFC7F7E781F781F780F780F788C
:100850000F780F780F780F780F780F781F781E7841
:100860007E78F87FE07F00000000000000000000BC
:10087000000000000000FF3FFF3F003E003E003E42
:10088000003E003E003EFE3FFE3F003E003E003E7A
:10089000003E003E003EFF3FFF3F00000000000022
:1008A00000000000000000000000FF1FFF1F001EEE
:1008B000001E001E001E001E001EFF1FFF1F001E48
:1008C000001E001E001E001E001E001E001E000056
:1008D0000000000000000000000000000000FE0317
:1008E000FF0F871F003E007C007C007800F800F8B6
:1008F0007FF87FF80F780F7C0F7C0F3E8F1FFF0F64
:10090000FE030000000000000000000000000000E6
:1009100000001F7C1F7C1F7C1F7C1F7C1F7C1F7C9A
:100920001F7CFF7FFF7F1F7C1F7C1F7C1F7C1F7C29
:100930001F7C1F7C1F7C00000000000000000000E6
:10094000000000000000FF3FFF3FE003E003E00382
:10095000E003E003E003E003E003E003E003E0037F
:10096000E003E003E003FF3FFF3F00000000000062
:1009700000000000000000000000FC1FFC1F7C00C5
:100980007C007C007C007C007C007C007C007C0087
:100990007C007C0078007800F838F03FC03F000011
:1009A00000000000000000000000000000001F3CEC
:1009B0001E3C3C3C783CF03CE03DE03FC03F803F8B
:1009C000C03FE03FF03DF03C783C7C3C3E3C1F3C6F
:1009D0000F3C0000000000000000000000000000CC
:1009E0000000003E003E003E003E003E003E003E55
:1009F000003E003E003E003E003E003E003E003E07
:100A0000003EFF3FFF3F000000000000000000002C
:100A10000000000000001FF81FFC1FFC3FFE3FFE0F
:100A20003FFE7FFF77FF77FFF7F7E7F7E7F3E7F39F
:100A3000C7F307F007F007F007F000000000000020
:100A4000000000000000000000000F7C0F7C0F7E03
:100A50000F7F0F7F8F7F8F7FCF7FEF7BEF79FF79C6
:100A6000FF78FF787F783F783F781F781F78000005
:100A70000000000000000000000000000000F0077F
:100A8000FC1F3E3E1F7C0F780F780FF80FF80FF811
:100A90000FF80FF80FF80F780F781F7C3E3EFC1F01
:100AA000F00700000000000000000000000000004F
:100AB0000000FC3FFF3F1F3E0F3E0F3E0F3E0F3E2C
:100AC0001F3E3F3EFC3FF03F003E003E003E003EEA
:100AD000003E003E003E000000000000000000005C
:100AE000000000000000F007FC1F3E3E1F7C0F7856
:100AF0000F780FF80FF80FF80FF80FF80FF80F78BE
:100B00000F781F7C3E3EFC1FF8077C003F000F0063
:100B100003000000000000000000F03FFC3F7E3CAE
:100B20003E3C1E3C1E3C3E3C3C3CFC3CF03FE03F1F
:100B3000F03DF83C7C3C3E3C1E3C1F3C0F3C000022
:100B40000000000000000000000000000000FC07A2
:100B5000FE1F0E3E003C003C003C003EC01FF80F54
:100B6000FE037F001F000F000F001F203E3CFC3FD4
:100B7000F01F000000000000000000000000000066
:100B80000000FFFFFFFFE003E003E003E003E003FA
:100B9000E003E003E003E003E003E003E003E0033D
:100BA000E003E003E003000000000000000000009C
:100BB0000000000000000F7C0F7C0F7C0F7C0F7C7E
:100BC0000F7C0F7C0F7C0F7C0F7C0F7C0F7C0F7CCD
:100BD0001E3C1E3C3E3EFC1FF007000000000000D3
:100BE0000000000000000000000007F007F007F818
:100BF0000F780F7C1E3C1E3C1E3E3C1E3C1F781F87
:100C0000780FF80FF007F007F007E003E0030000AB
:100C1000000000000000000000000000000003E0F1
:100C200003F003F007F0E7F3E7F3E7F3E773F77B8D
:100C3000F77FFF7F7F7F7F7F7E7F7E3F3E3E3E3E12
:100C40003E3E000000000000000000000000000028
:100C5000000007F80F7C1E3E3E3E3C1FF80FF007D9
:100C6000E007E003E003F007F80F7C0F7C1E3E3C3A
:100C70001F780F780FF00000000000000000000057
:100C800000000000000007F807780F7C1E3C1E3EA5
:100C90003C1F780FF80FF007E003E003E003E003E8
:100CA000E003E003E003E003E003000000000000D5
:100CB00000000000000000000000FF7FFF7F0F0029
:100CC0001F003E007C00F800F000E001E003C007D8
:100CD000800F000F001E003E007CFF7FFF7F0000A2
:100CE0000000000000000000FF0780078007800769
:100CF00080078007800780078007800780078007BC
:100D000080078007800780078007800780078007AB
:100D1000800780078007FF07FF0700000078007842
:100D2000003C003C001E001E000F000F80078007E3
:100D3000C003C003E001E001F000F000780078009B
:100D40003C003C001E001E000F000F0007000000CA
:100D5000F07FF000F000F000F000F000F000F00094
:100D6000F000F000F000F000F000F000F000F00003
:100D7000F000F000F000F000F000F000F000F07F74
:100D8000F07F0000C000C001C001E003E003F007F5
:100D9000F0077807780F380F3C1E3C1E1E3C1E3CA7
:100DA0000F380F78077800000000000000000000F6
:100DB0000000000000000000000000000000000033
:100DC0000000000000000000000000000000000023
:100DD0000000000000000000000000000000000013
:100DE0000000FFFFFFFF000000000000F000000017
:100DF00000000000000000000000000000000000F3
:100E000000000000000000000000000000000000E2
:100E100000000000000000000000000000000000D2
:100E2000000000000000000000000000F80FFC3F80
:100E30007C3C3E003E003E00FE07FE1F3E3E3E7CE8
:100E40003E783E7C7E7CFF3FCF1F0000000000000C
:100E500000000000003C003C003C003C003C003C2A
:100E6000F83DFE3F3E3F1F3E0F3C0F3C0F3C0F3C0A
:100E70000F3C0F3C1F3C1E3C3E3FFC3FF03B000044
:100E80000000000000000000000000000000000062
:100E900000000000FE03FF0F871F003E003E003CE5
:100EA000007C007C007C003C003E003E871FFF0F62
:100EB000FE03000000000000000000001F001F00F3
:100EC0001F001F001F001F00FF07FF1F3F3E1F3CAA
:100ED0001F7C1F7C1F7C1F781F781F7C1F7C3F3C62
:100EE0007F3EFF1FDF0F0000000000000000000039
:100EF000000000000000000000000000F803FC0FEC
:100F00003E1F1E3E1F3C1F7CFF7FFF7F007C007C3E
:100F1000003C003E071FFF0FFE0300000000000022
:100F200000000000FF01E103C003C007C007C007C5
:100F3000FF7FFF7FC007C007C007C007C007C0070B
:100F4000C007C007C007C007C007C007C007000030
:100F50000000000000000000000000000000000091
:100F600000000000EF07FF1F7F3E1F3C1F7C1F7C1F
:100F70001F781F781F781F7C1F7C3F3C7F3EFF1F20
:100F8000DF0F1E001E001E007C38F83F003C003CB6
:100F9000003C003C003C003CFC3DFE3F9E3F1F3FB0
:100FA0001F3E1F3C1F3C1F3C1F3C1F3C1F3C1F3C67
:100FB0001F3C1F3C1F3C0000000000000000000020
:100FC000F001F0010000000000000000E07FE07F81
:100FD000E001E001E001E001E001E001E001E00109
:100FE000E001E001E001E001E0010000000000009C
:100FF00000000000F800F800000000000000000001
:10100000F83FF83FF800F800F800F800F800F800A2
:10101000F800F800F800F800F800F800F800F80010
:10102000F800F000F071E07F003C003C003C003C28
:10103000003C003C1F3C3E3C7C3CF83CF03DE03D2D
:10104000C03FC03FE03FF03DF83C7C3C3E3C1F3C95
:101050001F3C00000000000000000000F07FF001D5
:10106000F001F001F001F001F001F001F001F001F8
:10107000F001F001F001F001F001F001F001F001E8
:10108000F001F001F001000000000000000000008D
:101090000000000000000000000000009EF7FFFFBD
:1010A000FFFFFFFFE7FBE7F9C7F1C7F1C7F1C7F1A2
:1010B000C7F1C7F1C7F1C7F1C7F100000000000098
:1010C0000000000000000000000000000000000020
:1010D000FC3DFE3F9E3F1F3F1F3E1F3C1F3C1F3CF1
:1010E0001F3C1F3C1F3C1F3C1F3C1F3C1F3C000083
:1010F00000000000000000000000000000000000F0
:1011000000000000F007FC1F3E3E1F3C1F7C0F78D4
:101110000F780F780F780F781F7C1F3C3E3EFC1F26
:10112000F0070000000000000000000000000000C8
:101130000000000000000000F83DFE3F3E3F1F3E63
:101140000F3C0F3C0F3C0F3C0F3C0F3C1F3C1E3E26
:101150003E3FFC3FF83F003C003C003C003C003C74
:10116000000000000000000000000000EE07FE1F6D
:101170007E3E1E3C1E7C1E781E781E781E781E78D1
:101180001E7C3E7C7E3EFE1FDE0F1E001E001E00EB
:101190001E001E0000000000000000000000000013
:1011A0007F1FFF1FE71FC71F871F001F001F001F94
:1011B000001F001F001F001F001F001F001F000056
:1011C000000000000000000000000000000000001F
:1011D00000000000FC07FE1F0E1E003E003E003F08
:1011E000E01FFC07FE003E001E001E003E3CFC3FD0
:1011F000F01F0000000000000000000000000000E0
:101200000000800780078007FF7FFF7F800780073F
:101210008007800780078007800780078007800796
:10122000C007FF03FF0100000000000000000000F5
:101230000000000000000000000000001E3C1E3CFA
:101240001E3C1E3C1E3C1E3C1E3C1E3C1E3C1E3CCE
:101250003E3C7E3CFE3EFE1FDE0F00000000000014
:10126000000000000000000000000000000000007E
:1012700007F00F780F781E3C1E3C1E3E3C1E3C1EA5
:10128000780F780FF00FF007F007E003E00300009D
:10129000000000000000000000000000000000004E
:1012A0000000000003F0E3F1E3F3E7F3F7F3F7F3F3
:1012B000F77F777F7F7F7F7F7F7F3E3E3E3E3E3E54
:1012C0003E3E0000000000000000000000000000A2
:1012D00000000000000000000F7C1E3E3C3E3C1F52
:1012E000F80FF007F007E003F007F807F80F7C1E8F
:1012F0003E3E1F3C1F780000000000000000000080
:1013000000000000000000000000000007F80F7857
:101310000F7C1E3C1E3C3C1E3C1E3C1F780FF80FF1
:10132000F007F007E003E003C003C003C003800739
:10133000800F007F0000000000000000000000009F
:10134000FF3FFF3F1F003E007C00F800F001E0037C
:10135000C007800F001F001E003CFF7FFF7F0000C2
:101360000000000000000000FE01E003C003C00315
:10137000C003C003E001E001E001C001C003803F01
:10138000803FC003C001E001E001E001C003C003F1
:10139000C003C003E003FE017E000000C001C001E5
:1013A000C001C001C001C001C001C001C001C00135
:1013B000C001C001C001C001C001C001C001C00125
:1013C000C001C001C001C001C001C001C0010000D6
:1013D000C03FE003E001E001E001E001C001C00323
:1013E000C003C001E001FE00FE00E001C001C00337
:1013F000C003C001E001E001E001E001E003C03F03
:10140000003F00000000000000000000000000009D
:1014100000000000000000000000073FC77FE773E6
:10142000FFF17EF00000000000000000000000005E
:1014300000000000000000002DE9F0439FB000BF55
:1014400065A6269CDFF8E88A8DF83B4002910024CF
:101450000B944FF0FF37044691461D460AE019F8F9
:10146000011B0298A0470028029000F0A1800B9871
:10147000401C0B9099F8000050B12528EFD10021B5
:101480000022059106920791089209910A9203E0C1
:101490000B98A5E041F0010119F8010F2028F9D0BF
:1014A00023280CD02B2804D02D2805D0302809D093
:1014B00080E041F00201EFE741F00401ECE741F088
:1014C0000801E9E741F01001E6E70D920AE00D9806
:1014D000404505DA00EB800002EB4002303A0D9205
:1014E00009F1010999F80020A2F130000A28EED391
:1014F00099F800002E2818BF0C9726D119F8010F73
:101500002A2808D12868286009F1010950F8042B1D
:1015100028600C9219E02D280CBF09F10109002068
:1015200000220C920BE040B90C9A424505DA02EB1E
:10153000820203EB4203303B0C9309F1010999F855
:101540000030A3F130020A2AEDD3ADF8381030464E
:1015500099F8001000F0A0FE08B119F8010B8DF801
:101560003A009DF83A00682805D199F800006828EB
:101570000CD1622106E06C2804BF99F800006C28A9
:1015800004D171218DF83A1009F1010910A80490D5
:101590002A4619F8013B6946204600F061F838B93F
:1015A00010AA6946204600F091F900287FF562AF45
:1015B000384615E02A2888D12A682A6052F8040B98
:1015C0002A6000280D9003D540420D9041F004019F
:1015D00009F101098CE70000686A6C747A4C00001C
:1015E0001FB0BDE8F083622820D0682811D06A2897
:1015F00003D06C2827D0712825D10868C01D20F0A1
:1016000007000860D0E9002308300860194610463A
:101610007047002A0A680A60106803D0121D0A6029
:1016200000B217E0121D0A6080B217E0002A0A68B3
:101630000A60106803D0121D0A6040B20AE0121D51
:101640000A60C0B20AE0002A0A680A60106803D083
:10165000121D0A60C1177047121D0A6000217047F1
:1016600070B51C460D46B4F125002E69114600F0F8
:101670001B811C386AD0001F022867D9133843D059
:10168000093863D0801E16D0401E1ED0401E02288E
:101690005CD9001F19D0401F00F08380401E33D05A
:1016A000401E00F0CD80C01E00F0DC80801E2BD0DC
:1016B000C01E29D0FEE06869421C6A610A680A609F
:1016C00052F8043B0A603354FEE095F83A000122D8
:1016D000FFF789FFC5E900010023994204DA686930
:1016E000411C69612D220DE0288F810704D56869AE
:1016F000411C69612B2205E0C00722D56869411CA5
:101700006961202232541CE095F83A000022FFF76C
:101710006AFFC5E9000195F83800010711D5D5E940
:1017200000230020834208BF82420AD044F02000F8
:10173000782806D1686930213154401C421C6A6106
:101740003454214668693044E86087E00868C01D69
:1017500020F007000860D0E9002308300860C5E9E0
:101760000023D5E90001C80F04D06869411C6961F4
:101770002D220DE0288F810704D56869411C69611D
:101780002B2205E0C00704D56869411C696120224D
:10179000325468693044E8602146284600F0C8F9B0
:1017A00092E005F13A02507820B14FF0FF340FF685
:1017B000502062E01078622808D0682824D06A2877
:1017C00012D06C282ED071280ED02BE00A680A6047
:1017D00052F8040B0A6020B94FF0FF340FF638209E
:1017E0004BE0E96A01706FE00A680A6052F8040B86
:1017F0000A6020B94FF0FF340FF61C203DE0EA6A82
:10180000D317C0E900235FE00A680A6052F8040BAE
:101810000A6020B94FF0FF340FF6FC102DE0E96AA2
:10182000018051E00A680A6052F8040B0A6020B98E
:101830004FF0FF340FF6E0101FE0E96A016043E06B
:101840000A680A6052F8040B0A60002120F00002C6
:1018500021F0FF33C5E90023EE607821284600F02F
:10186000BBF831E00868086050F8044B0860EC6091
:101870003CB94FF0FF340FF6B81000F01DFD201AF0
:1018800070BD2E6B002E04D5204600F035FD0446B9
:1018900008E032460021204600F04AFD002814BF2F
:1018A000041B3446AC610FE06869411C6961252264
:1018B000325409E06969481C68612522725421008C
:1018C00002D0431C6B613454002070BD2DE9FC41F3
:1018D0000F46064690467A6B7869396ABC6A121AD6
:1018E000B869521A796A121AF869521A121A97F8D4
:1018F0003800141B41070FD42020002C8DF8000065
:101900000ADD254601236A463946304600F060FC70
:1019100000285DD16D1EF5D17B69424639463046BF
:1019200000F056FC002853D130208DF800003D6AAD
:10193000002D09DD01236A463946304600F048FC97
:10194000002845D16D1EF5D1BB69FA68394630468D
:1019500000F03EFC00283BD130208DF800007D6A6D
:10196000002D08DD01236A463946304600F030FC80
:1019700070BB6D1EF6D1F868B969FB69421839462B
:10198000304600F025FC18BB30208DF80000BD6A01
:10199000002D08DD01236A463946304600F018FC68
:1019A000B0B96D1EF6D197F8380041070DD520204B
:1019B000002C8DF8000008DD01236A4639463046C8
:1019C00000F006FC20B9641EF6D10020BDE8F681C7
:1019D0004FF0FF30BDE8F6812DE9FC4707468C4605
:1019E0003E69BCF16F0F08BF082405D04CF0200001
:1019F000782814BF0A2410243C25D7E90023BCF121
:101A0000640F18BFBCF1690F9046994606D10021BA
:101A10008B4203DAD8F1000869EB49094FF0000A5C
:101A2000D14508BFD0451FD1386BE8B9082C4BD140
:101A300097F83800010747D530203B2586F83B0052
:101A400042E000280ED597F8380000F01400102866
:101A500008D17B6B7969386A5B1A1B1A9A1A002ABB
:101A6000C8BF3A62BDE8F3878DF800C040464946DA
:101A70002246E31700F088FC3032D0B26D1E3A28BF
:101A8000019504DB9DF80000A0F151018A18725500
:101A9000404649462246E31700F076FC89468046D8
:101AA000D14508BFD04503D0F86871198842DDD30D
:101AB000082C09D197F83800010705D5705D30284A
:101AC00002D06D1E30207055C5F13C02BA6171190B
:101AD000F960386B8242B4DA821A3A624FF6EF70DC
:101AE000398F01403987BDE8F3872DE9D043064699
:101AF0000F4614464FF00008DFF8389412E0E00774
:101B000007D542464B463046394600F055FD06465D
:101B10000F464046494642464B4600F04DFD641094
:101B200080468946002CEAD130463946BDE8D0834C
:101B30002DE9F34F054641F020048DB0D5E9008929
:101B4000612C02AE09D0286B002848BF062003D4C0
:101B500008BF672C01D101202863D5E90023580074
:101B60004015401C0ED119030CD00320A8619DF82C
:101B7000381061391A2902D20FF2D06111E00FF248
:101B8000D0610EE059004915491C0FD118030DD141
:101B90000320A8619DF8381061391A2914D30FF277
:101BA000B861E868032200F0D9FDD3E1194621F0BD
:101BB0000043B3F5801F10460DD20027BB4208BF7B
:101BC000BA42019703D111E00FF28861E9E701AA57
:101BD00000F018FE0AE0DFF8607307EB1352DFF83D
:101BE0005C3301921940DFF858331943C5E900010D
:101BF000612C0ED1E86830210170821CEA609DF8EA
:101C0000381061290CBF7821582141706869801C07
:101C10006861D5E900AB2BF0004300202AF00002F8
:101C2000834204BF8242002300F05B81612C40F0BC
:101C3000AA80286B002847BF21210091401C0090FA
:101C4000009F7F1C404649460022002300F012FE00
:101C5000D94601998DF8082038BF89F00049091F3D
:101C6000002FD04601910DF1090040F34981B3499D
:101C7000DFF8D0B20C9106464046494600220023C8
:101C800000F010FE80F03B814800400D00F11C0286
:101C900011D0002A0FDD40F2FF70824205DB09F00F
:101CA000004040EA0B01002013E00C98014041EA9B
:101CB000025140460DE029F00043002028F00002C8
:101CC000834208BF82420FBF40461C22404600F0BC
:101CD00001FE8046894600F09BFEFF1F002F044650
:101CE00009DD00F0B3FE02460B464046494600F0CF
:101CF000BFFE80468946F01D072104E004F00F0274
:101D000000F8012D2411002C01DD491EF6D5491ED5
:101D10005CBF002200F8012DF9D5ECE00020194647
:101D200002AA0A4400E05B1E12F80149491E8442DF
:101D3000F9D00F2804D10DF10900425C521C425425
:101D4000002904D50198001D02AE5B1C0190591EAC
:101D500012D49DF838007218A0F13A07147804F1F3
:101D600030085FFA88F43A2CA8BFB844491E02F83C
:101D70000189F3D58DF83800286B002840F1B08038
:101D8000591E2963ACE0404649460022002300F07A
:101D900071FD019938BF89F0004947F297504143DE
:101DA000694A91FBF2F20192D2F1070204DD40464A
:101DB0004946FFF79AFE0AE0524200206349FFF7C6
:101DC00094FE02460B464046494600F0C3FE80465C
:101DD000662C286BDFF878B106BF019F0A3706270B
:101DE0003F18142FC8BF142730208DF808008946EB
:101DF0000DF1090000E03046002F34DD0646404674
:101E0000494600F0CBFF01460A4606F108030420CC
:101E10000A26B2FBF6F606EB860EA2EB4E02303235
:101E200003F8012C0A22B6FBF2F202EB820EA6EBBB
:101E30004E063036401E03F8026DE9D1083F002FF0
:101E400003F10806D7DD084600F0BCFF02460B464A
:101E50004046494600F00CFE00225B4600F0ACFB19
:101E600080468946CBE70DF10901401A0DF10906BC
:101E700004E00199491E401E0191761C31783029F9
:101E8000F7D0662C02D10199491C03E0652C0CBFE8
:101E9000012100212B6BCB189842B8BF431E002BA9
:101EA0001ED4834204DAF05C3528A8BF392000DA5A
:101EB00030201946721E02EB010800E05B1E18F884
:101EC0000199491E8145F9D0392802D1705C401C26
:101ED0007054002904D50198401C16465B1C0190E3
:101EE000019800B200901BB29DF838103246284687
:101EF00000F034F82EE0C61D002F3FF7BDAE30468F
:101F00000DF10901401A009903468842C8BF0B46EB
:101F1000002B0DF109063FF52FAF8342BFF6FEAE51
:101F20000DF10900C15C07297FF7F8AE0F20F6E636
:101F3000CBCCCC0C0000244002FCFFFFFFFF0F8045
:101F40000000E03F0000F07FA08601000000F03FAD
:101F500084D797410FB0BDE8F08F00002DE9F84716
:101F600083B006468A461746984600F039FFB8F116
:101F7000000F406A356B90F8009002DC4FF00108CA
:101F8000B6A74AF02000BDF93040662808BF641C9F
:101F900015D0672840F0848014F1040FC0F28680C9
:101FA000AC4280F2838096F83800641C010702D4AA
:101FB000A845B8BF454620B22D1A48BF00250FFAE4
:101FC00084FAF068B169BAF1000F25DC4A1C3023AD
:101FD0004354002D03DC96F83800010703D5F06860
:101FE00000F80290521C15EB0A0FB8BF6C4220B2E9
:101FF000441941424445B8BFA046B26171620FFA2C
:1020000088F5F561F068B3692A463946184400F04E
:10201000A5FB641BB462C4E022B29045084417DA01
:102020004246394600F09AFBB0694044B061AAEBE1
:102030000801002D716203DC96F838100A0705D5F7
:10204000F16801F80090F069401CF061B562A8E009
:10205000394600F083FBB069002D5044A8EB04081A
:1020600003DC96F838100A0703D5F16801F80090F0
:10207000401CB0610FFA88F08542F368B069B8BFC0
:10208000A8460FFA88F207EB0A01184400F066FB35
:10209000B1690FFA88F00144B161281A706280E0DA
:1020A000BAF1610F14D14FF0700A16E0A84504DAB6
:1020B00096F838100A0758BF45466D1E48BF0025E0
:1020C000BAF1670F14BF4FF0450A4FF0650A04E0FC
:1020D000BAF1410F08BF4FF0500AB169F368481CCC
:1020E000B061002D17F8012B5A5403DC96F8381014
:1020F0000A071BD5F168431CB36101F80090002D5D
:1021000014DDA8F101080FFA88F039468542F76816
:10211000B8BFA8460FFA88F2F81800F01FFBB069A4
:102120000FFA88F108446D1AB0617562F068B16900
:102130000844002C80F800A003D42B224270811C9C
:1021400003E02D2141706442811C00206A460AE0B0
:1021500023460A2493FBF4F404EB8405A3EB450324
:1021600002F8013B401C24B2002CF1DC012806DC03
:102170004AF02002652A04BF302201F8012B48B939
:10218000302001F8010B07E0401E1DF8003030330D
:1021900001F8013B0028F7DCF268B0691044091A25
:1021A000F16196F8380000F0140010280DD1726922
:1021B000B169706A8A18F1698218B06A8A1882183F
:1021C000706B8242BCBF821A326204B0BDE8F087F5
:1021D000F8B505460E4617461C46002074B117F8A0
:1021E000011BB068A847B06030B1F06A401CF062D3
:1021F0000020641EF3D1F2BD4FF0FF30F2BD0000AD
:102200007072696E74665F733A20256E206469731C
:10221000616C6C6F776564007072696E74663A20E9
:1022200062616420256E20617267756D656E740051
:102230007072696E74665F733A2062616420257300
:1022400020617267756D656E740000006E616E00CE
:102250004E414E00696E6600494E4600300030B473
:10226000002513E050F8042BD30744BFA9F1010364
:102270009A18091F042942F8045BFAD213468C0706
:1022800044BF15809B1CC90748BF1D7050F8041B34
:102290000029E7D130BC70470278C9B28A421AB12E
:1022A0001CBF10F8012FF9E718BF00207047026823
:1022B000531C03601170704780B500B906A0054932
:1022C0000B681BB122220021984701E000F08CFD31
:1022D000222002BD98030020636F6E7374726169DF
:1022E0006E742068616E646C65723A20626164206D
:1022F0006D6573736167650000F10103810704D0A8
:1023000010F8011B820781B1FAD10268A2F10131F4
:10231000914311F0803104BF50F8042FF6E709BA59
:10232000B1FA81F100EBD100401CC01A70470102E4
:10233000C9B2830706D0521E22D310F8013B99423E
:10234000F7D11FE0083A13D302F1040241EA012158
:1023500041EA014150F8043B121F21BF4B40A3F159
:10236000013C2CEA030C1CF0803FF3D0C9B2001FE3
:10237000083210F8013B521E28BF91EA030FF8D82B
:1023800018BF0120401E7047BBBBE1B1B2F5803FD2
:1023900080F07E80022A1ED98C46B1FBF2F102FB4E
:1023A00011C31B0443EA1043B3FBF2FC02FB1C33D2
:1023B00080B240EA0343B3FBF2F002FB103240EA82
:1023C0000C4000237047022A05D98446B0FBF2F086
:1023D00002FB10C270474AB105D100F00102490862
:1023E0005FEA3000704700220023704700F000BD14
:1023F0000B000200002100207047904271EB030C9B
:10240000F6D3B3F5803F2FD2F0B5B3FA83F7B1FA24
:1024100081F4A7F10F0E3D1B5340CEF1200602FAC6
:102420000EF2F3415340B5F10F0746D80F3C2C4450
:102430004140C4F12006A040F1414140B1FBF3F618
:1024400003FB1611A2FB0645001BA94102D2761E12
:102450008018594180EA010221FA0EF362FA0EF265
:1024600000215A403046F0BD30B4B1FBF3FC03FB11
:102470001C11A2FB0C45001BA94103D2ACF1010CBD
:102480008018594130BC02460B4660460021704717
:10249000B2F1807F65D3F0B5B2FA82F7B1FA81F478
:1024A000C7F10F063D1B22FA06F307F1110EF241A8
:1024B00020355A40B5F10F07B8D94140C4F1200684
:1024C000A040F1414140B1FBF3FC03FB1C11A2FB16
:1024D0000C45001BA94103D2BCF1010C80185941E5
:1024E0000F2F12D30F3FC90341EA5041B1FBF3F65E
:1024F00003FB1611A2FB0645D4EBC030A94102D262
:10250000761E8018594146EACC3C07B34140C7F1DA
:102510002006B840F1414140B1FBF3F603FB161130
:10252000A2FB0645001BA94102D2761E8018594124
:1025300080EA010221FA0EF3C7F1200462FA0EF2DA
:102540000CFA07F05A402CFA04F13043F0BD80EA4F
:10255000010221FA0EF3002162FA0EF260465A409F
:10256000F0BD8C46B1FBF2F102FB11C31B0243EA42
:102570001063B3FBF2FC02FB1C331B024CEA00208D
:1025800043EA1063B3FBF2FC02FB1C331B024CEA70
:10259000002043EA1063B3FBF2FC02FB1C331B0276
:1025A0004CEA002043EA1063B3FBF2FC02FB1C324E
:1025B0004CEA002000237047B0B581EA030C0CF010
:1025C000004C40F2FF7515EA11541DBF15EA135770
:1025D000AC42AF4239E0E41923EA455343F4801397
:1025E000C90241F0004141EA505EC7021100A7FB59
:1025F000020200284FF00000EEFB01204FF0000126
:10260000E3FB072118BF42F00102401800214941B5
:10261000E3FB0E01A4F580640F0302D25200404197
:10262000494154F101046CDD470872F1004250F158
:10263000000051EB0451A1F580115CBF41EA0C018F
:10264000B0BD4CEA05510020B0BD05EA1357AC42BD
:1026500014BFAF4241E050EA410E1CBF52EA430EA4
:1026600002E061460020B0BD24423C441BD15FEA39
:10267000070EF6D0090302BF01460020AEF1140E8A
:10268000B1FA81F7AEEB070401FA07FE0C37C7F188
:10269000200100FA07F7C8404EEA000E23EA45532E
:1026A00043F48013A2E733F00043B3FA83F704BF87
:1026B000B2FA82FE77440B3FE41BB7F1200E2FBF26
:1026C00002FA0EF3BB40C7F1200E22FA0EFE38BF0D
:1026D00043EA0E03BA40641C82E750EA410E14BF7D
:1026E00052EA430E6FF000014FF4001717EB430F4F
:1026F0008ABF194617EB410FB5E74CEA0551002098
:10270000B0BDD4F10104B4F120070FDAC4F1200701
:10271000520828BF42F0010210FA07F501FA07F744
:10272000E1BF2A43E0403843E1400FE0352C98DC1C
:10273000C7F1200452EA400220FA07F218BF42F023
:10274000010231FA07F0A1400A43002172F1004270
:1027500050F1000051EB0C01B0BD010262B38B07D8
:1027600008D0521E11F8013B00F8013B00F0248014
:102770008B07F6D1830740F0208000BF103A07D3C3
:1027800030B4B1E83810103AA0E83810F9D230BCB3
:10279000530724BFB1E80810A0E8081044BF51F85F
:1027A000043B40F8043BD20724BF31F8022B20F849
:1027B000022B44BF0B7803707047121F17D35B00C6
:1027C00009D151F8043B20F8023B1B0C121F20F8E2
:1027D000023BF6D20BE051F8043B00F8013B1B0A28
:1027E00020F8023B1B0C121F00F8013BF3D238BF4C
:1027F000121D521E24BF11F8013B00F8013BF8D80E
:102800007047000010B5144600F002F8226010BDB9
:10281000C1F30A5343B14A0012F5001F28D2A3F2B4
:10282000FE32A1EB0251704750EA410C20D001F07A
:10283000004C31EA0C01B1FA81F204BFB0FA80F326
:10284000D2180B3AB2F120032CBF00FA03F19140E9
:1028500041EA0C013EBFC2F1200C20FA0CF31943EF
:102860009040524240F2FD33D21A01EB03517047BF
:10287000002270474FF4001C1CEB410F94BF1CEB6F
:10288000430F09E041EA030C50EA4C0C52EA0C0CED
:1028900003D2994208BF9042704714BF8B428242D4
:1028A000704700004FF4001C1CEB410F94BF1CEB61
:1028B000430F09E041EA030C50EA4C0C52EA0C0CBD
:1028C00003D28B4208BF8242704714BF99429042A4
:1028D00070470000124254D440F2FF7C1CEA1153AE
:1028E0000FD0634531D09B1863453CBF01EB0251CB
:1028F000704701F0004141EA0C510020AFF3008025
:10290000704750EA410320D001F0004C91EA0C01DD
:102910001CD0B1FA81F30B3B9A420DD9D21A9940DF
:1029200051EA0C01C3F1200C20FA0CFC61449840E0
:10293000531C40F2FF7CD7E7914041EA0C01C2F101
:10294000200C20FA0CF3194390407047B0FA80F342
:102950001533202BE0D3202AEED3203A203B9A4295
:1029600009D9D21A00FA03F141EA0C010020531CE4
:1029700040F2FF7CB8E700FA02F141EA0C010020C6
:102980007047524240F2FF7C1CEA11530DD0634560
:10299000DBD0B2EB030C3CBFA1EB025170470CF152
:1029A000010221EA035141F4801150EA410CCCD0DC
:1029B00001F0004C352A27DC30B481EA0C01B2F179
:1029C000200309DAC2F12003044601FA03F5D040DE
:1029D0002843D1409C400CE0C3F12002450020FA7E
:1029E00003F418BF44F0010421FA03F091400C43B2
:1029F000002174F1004550F1000051EB0C0124421C
:102A000030BC7FF47BAF70476146002076E7000062
:102A1000C1F30A5340F2FE329B1A14DDD3F12003B6
:102A20004FEAE17208DDC90241EA505141F000402D
:102A3000D84080185040704703F2E13010B1D243C3
:102A400082F000407047002070470000C11768B155
:102A50004840401AB0FA80F29040D21CC907C2F533
:102A6000846241EA025202EBD02140057047000027
:102A700070B44FF0004591EA030F40F1BB816B4009
:102A8000841A71EB030603D2001BB1411219734182
:102A90004FF4001C1CEB410F34BF7CEB430442E0BD
:102AA0000C0DA4EB1356352E4FDC45EAC323DB0A8D
:102AB00045EAC121C912B6F120050DDD63FA05F61C
:102AC000EB4086EA0305124218BF45F00105C01825
:102AD00051F100010CD213E062FA06F5F2405540C4
:102AE000F3415A40B340F3405A408018594107D34C
:102AF00049085FEA30005FEA350528BF45F0010567
:102B000001F58011420875F1004250F1000041EBDF
:102B100004514E0016F5001F70BC38BF70470020EE
:102B2000090D090570471CEB410F10D252EA43060C
:102B30000BD0BCEB410F05D80C0DAB43661E342EF9
:102B4000B6DD02E0AB438018594170BC704770BCE1
:102B500070470000F0B540F2FF7581EA030C0CF0FD
:102B6000004C15EA11541DBF15EA1357AC42AF4291
:102B7000E5E0BC41C1F31301C3F31303801A99418B
:102B800043F4801304D2641E400049418018594127
:102B9000C90241EA5051B1FBF3F603FB1611A2FB47
:102BA0000675D7EBC020A94102D2761E8018594184
:102BB000C90241EA5051B1FBF3FE03FB1E11A2FB17
:102BC0000E75D7EBC020A94103D2AEF1010E8018DB
:102BD0005941890241EA9051760546EA8E2EB1FBB1
:102BE000F3F603FB1611A2FB0675D7EB8020A94173
:102BF00002D2761E80185941C90241EA50514EEA6C
:102C0000060EB1FBF3F603FB1611A2FB0675D7EB1C
:102C1000C020A94102D2761E80185941C90241EA5A
:102C20005051B1FBF3F703FB1711A2FB0735D3EBB0
:102C3000C020A94167F100070CBF004247F001071F
:102C400066F3D5274FEA1E31B80814F5806412DD0B
:102C5000BD0775F1004250EB0E5051EB045111F5D8
:102C6000801F5CBF41EA0C01F0BD4CF07F6141F078
:102C7000E0410020F0BDBD076D0840EA0E5041F470
:102C80008011D4F10104B4F120060ADAC4F120065F
:102C90000200E04001FA06F3E1401843B240154358
:102CA0000EE0342C13DCC6F1200445EA40056D0823
:102CB00020FA06F2154321FA06F0A1400D43002147
:102CC00075F1004250F1000051EB0C01F0BD002005
:102CD0005FEA0C01F0BDCFB992185B41B3FA83F7FC
:102CE00004BFB2FA82F6BF190B3FB7F120062FBF1F
:102CF00002FA06F3BB40C7F1200622FA06F638BFF7
:102D00003343BA401CB1E419641E33E77F4231F00B
:102D10000041B1FA81F404BFB0FA80F6A4190B3C6B
:102D2000B4F120062FBF00FA06F1A140C4F120063D
:102D300020FA06F638BF3143A0403C1B1AE7AC42EC
:102D40001ABF05EA1357AF4212E050EA41061CBF12
:102D500052EA4306BFE750EA4107304661461CBFCE
:102D600041EA0551F0BD52EA430C08BFC143F0BD32
:102D700000204FF4001616EB410F98BF16EB430FDF
:102D800008BF16EB410F24BFC14305E016EB430F0C
:102D90000CBF61464CEA0551F0BD0000400D4918DA
:102DA00040EA81200CD2490DA1F58061491C40F018
:102DB000004005DBD1F11F0154BFC840C017704768
:102DC00000207047014648B1B0FA80F18840C91C24
:102DD000C1F58461090501EBD02140057047000071
:102DE000004870472C000020012000F0B9B8000016
:102DF00070470000841A71EB030604D26E40001B7A
:102E0000B141121973414FF4001C1CEB410F34BF48
:102E10007CEB430683E00C0DA4EB1356362E00F337
:102E20007C80012E45EAC32341DC43EA525312BFA2
:102E3000D20292025B08240545EAC12141EA5051C1
:102E4000D2EBC020994125D407D1B0FA80F610FA10
:102E500006F162D00020203608E0B1FA81F6B140D8
:102E6000C6F1200220FA02F21143B0404FEAF47496
:102E7000B4EB465434F001064FEA74040AD8D6F590
:102E80000016760D04F00044F04061FA06F250405E
:102E9000F1404840C00A40EA415021F0004128BFBB
:102EA0005FEA500550F1000044EBD12135E0DB0A28
:102EB00045EAC121C90AB6F120050EDD42EA024207
:102EC000120CC5F1200603FA06F6EB4042EA0605AD
:102ED0006D42984161F100010DE062FA06F5F240A1
:102EE000554063FA06FC82EA0C02F3405A406D42F8
:102EF000904161EB030111F4801F05D1641E62054E
:102F000002D06D004041494121F48011430875F120
:102F1000004350F1000041EB045170BC70471CEBC2
:102F2000410F15D223F0004352EA43060BD04FEA7B
:102F30004C0CBCEB410F04D80C0D661E342EB7DDD3
:102F4000EBE7801A994150EA410608BF0021E4E707
:102F500008BF1CEB430F28BF6FF00001DDE7000046
:102F600080B5AFF30080024A11001820ABBEFBE72A
:102F70002600020000000000000000000000000029
:102F80000000000000000000000000000000000041
:102F900000000000000000000000000C000C000C0D
:102FA000000C000C000C000C000C000C000C000CC1
:102FB0000000000C000C0000000000000000001BDE
:102FC000001B001B001B001B000000000000000095
:102FD00000000000000000000000000000000000F1
:102FE00000008019801980198019C07FC07F801966
:102FF0000033C07FC07F0033003300330033000054
:10300000000000000000001E003F80758065007415
:10301000003C001E00078005806580658075003FCC
:10302000001E0004000400000000007000D840D81A
:10303000C0D880D900730006000C801BC036C06663
:10304000C046C00680030000000000000000001E13
:10305000003F003300330033001E000CC03CC0664C
:10306000806380618063C03E801C0000000000001F
:103070000000000C000C000C000C000C0000000014
:103080000000000000000000000000000000000040
:10309000000000008000000100030006000600049C
:1030A000000C000C000C000C000C000C00040006CE
:1030B0000006000300018000002000100018000C32
:1030C000000C0004000600060006000600060006CC
:1030D0000004000C000C0018001000200000000C80
:1030E000002D003F001E0033000000000000000023
:1030F00000000000000000000000000000000000D0
:10310000000000000000000C000C000C000CC0FFD0
:10311000C0FF000C000C000C000C000000000000C0
:10312000000000000000000000000000000000009F
:103130000000000000000000000000000000000C83
:10314000000C000400040008000000000000000063
:1031500000000000000000000000001E001E000033
:10316000000000000000000000000000000000005F
:10317000000000000000000000000000000000004F
:10318000000000000000000C000C00000000000027
:10319000000000030003000300060006000600060E
:1031A000000C000C000C000C0018001800180000A7
:1031B000000000000000001E003F003380618061BD
:1031C0008061806D806D8061806180610033003F2F
:1031D000001E00000000000000000006000E001E9F
:1031E000003600260006000600060006000600065F
:1031F0000006000600060000000000000000001E9F
:10320000003F807380618061800100030006000C34
:10321000001800300060807F807F00000000000008
:103220000000001C003E006300630003000E000E5F
:1032300000038001800180618073003F001E000058
:103240000000000000000006000E000E001E001E20
:103250000016003600360066807F807F000600067C
:1032600000060000000000000000007F007F0060FA
:1032700000600060006E007F8063800180018061DB
:103280008073003F001E0000000000000000001ED0
:10329000003F803380610060006E007F807380613A
:1032A000806180618033003F001E0000000000004C
:1032B0000000807F807F800100030003000600067D
:1032C000000C000C000C000800180018001800008A
:1032D000000000000000001E003F806380618061EC
:1032E0000021001E003F8061806180618061003F9D
:1032F000001E0000000000000000001E003F0073E0
:103300008061806180618073803F801D8001806169
:103310000073003F001E00000000000000000000DD
:10332000000000000000000C000C00000000000085
:10333000000000000000000C000C00000000000075
:10334000000000000000000000000000000C000C65
:1033500000000000000000000000000C000C000451
:10336000000400080000000000000000800080034E
:10337000000E003800600038000E8003800000005E
:10338000000000000000000000000000000000003D
:103390000000807F807F00000000807F807F000031
:1033A000000000000000000000000000000000001D
:1033B0000000000000400070001C000780010007B2
:1033C000001C007000400000000000000000000031
:1033D0000000001F803FC071C060C000C0018003BA
:1033E0000007000E000C000C0000000C000C000098
:1033F000000000000000001E003F803180718063EB
:10340000806F806D806D806F806700600032003E4D
:10341000001C0000000000000000000E000E001B59
:10342000001B001B001B80318031803F803F8031BA
:10343000C060C060C0600000000000000000007CB0
:10344000007E0063006300630063007E007E006313
:10345000806180618063007F007E000000000000CA
:103460000000001E003F803180610060006000604D
:1034700000600060006080618031003F001E00003D
:10348000000000000000007C007F0063806380611A
:103490008061806180618061806100630063007E83
:1034A000007C0000000000000000807F807F006042
:1034B000006000600060007F007F006000600060CE
:1034C0000060807F807F0000000000000000807F9F
:1034D000807F0060006000600060007F007F00600F
:1034E00000600060006000600060000000000000FC
:1034F0000000001E003F80318061006000600060BD
:1035000080638063806180618031803F001E0000A5
:103510000000000000008061806180618061806146
:103520008061807F807F8061806180618061806157
:1035300080610000000000000000003F003F000C20
:10354000000C000C000C000C000C000C000C000C1B
:10355000000C003F003F0000000000000000800160
:103560008001800180018001800180018001800153
:10357000806180618073003F001E00000000000039
:103580000000C0608061006300660066006C007827
:10359000007C00660066006380618061C06000009E
:1035A000000000000000006000600060006000603B
:1035B0000060006000600060006000600060807F6C
:1035C000807F0000000000000000C071C071C07B5F
:1035D000C07AC06AC06AC06EC064C060C060C060AB
:1035E000C060C060C060000000000000000080718A
:1035F0008071807980798079806D806D806D806543
:10360000806780678067806380630000000000003F
:103610000000001E003F0033806180618061806196
:1036200080618061806180610033003F001E000086
:10363000000000000000007E007F806380618061E8
:1036400080618063007F007E006000600060006039
:1036500000600000000000000000001E003F00337A
:103660008061806180618061806180618065806748
:103670000033803F401E0000000000000000007E7C
:10368000007F8063806180618063007F007E0066D0
:103690000063006380618061C06000000000000082
:1036A0000000000E001F8031803100300038001E05
:1036B00000078003806180618031003F001E0000B0
:1036C000000000000000C0FFC0FF000C000C000C58
:1036D000000C000C000C000C000C000C000C000C8A
:1036E000000C00000000000000008061806180612B
:1036F00080618061806180618061806180618061C2
:103700008073003F001E0000000000000000C06049
:10371000C060C060803180318031001B001B001B05
:10372000001B000E000E000E000400000000000050
:103730000000C0C0C0C0C0C0C0C0C0C0C0CC804CB1
:10374000804C805E80528052807380618061000076
:10375000000000000000C0C0806080610033003BBA
:10376000001E000C000C001E001F003B80718061D9
:10377000C0C00000000000000000C0C08061806187
:1037800000330033001E001E000C000C000C000C67
:10379000000C000C000C0000000000000000803F46
:1037A000803F8001000300030006000C000C00189D
:1037B000001800300060807F807F00000000000063
:1037C000000F000F000C000C000C000C000C000C93
:1037D000000C000C000C000C000C000C000C000C89
:1037E000000F000F0000001800180018000C000C5B
:1037F000000C000C00060006000600060003000393
:103800000003000000000000001E001E000600066D
:103810000006000600060006000600060006000678
:103820000006000600060006001E001E0000000C38
:10383000000C001E00120033003380618061000024
:103840000000000000000000000000000000000078
:103850000000000000000000000000000000000068
:103860000000000000000000000000000000000058
:10387000E0FF0000000000380018000C000000000D
:103880000000000000000000000000000000000038
:103890000000000000000000000000000000000028
:1038A0000000001F803F80618001801F803F806199
:1038B0008063807FC03800000000000000000060CE
:1038C000006000600060006E007F80738061806136
:1038D000806180618073007F006E00000000000046
:1038E00000000000000000000000001E003F807388
:1038F00080610060006080618073003F001E0000F6
:103900000000000000008001800180018001801D16
:10391000803F807380618061806180618073803FBF
:10392000801D0000000000000000000000000000FA
:103930000000001E003F00738061807F807F006078
:103940008071003F001E0000000000000000C00762
:10395000C00F000C000C807F807F000C000C000C5E
:10396000000C000C000C000C000C0000000000001B
:103970000000000000000000801D803F8073806117
:103980008061806180618073803F801D80018063E1
:10399000007F003E00000060006000600060006F7B
:1039A000807F8071806180618061806180618061E1
:1039B000806100000000000000000006000600001A
:1039C0000000003E003E000600060006000600065D
:1039D00000060006000600000000000000060006C9
:1039E00000000000003E003E000600060006000643
:1039F000000600060006000600060046007E003CA9
:103A0000000000600060006000608061006300668C
:103A1000006C007C0076006300638061C060000081
:103A2000000000000000003E003E00060006000608
:103A30000006000600060006000600060006000656
:103A40000006000000000000000000000000000070
:103A5000000080DDC0FFC0CEC0CCC0CCC0CCC0CC8C
:103A6000C0CCC0CCC0CC00000000000000000000B2
:103A7000000000000000006F807F80718061806125
:103A800080618061806180618061000000000000D1
:103A900000000000000000000000001E003F8073D6
:103AA00080618061806180618073003F001E000042
:103AB000000000000000000000000000006E007F19
:103AC000807380618061806180618073007F006E9F
:103AD0000060006000600060000000000000000066
:103AE000801D803F80738061806180618061807310
:103AF000803F801D80018001800180010000000066
:103B00000000000000000067803F003900300030F6
:103B100000300030003000300030000000000000B5
:103B200000000000000000000000001E803F8061D7
:103B30000060007F803F80018061007F001E0000E8
:103B40000000000000000000000800180018007FBE
:103B5000007F001800180018001800180018801FB7
:103B6000800F0000000000000000000000000000C6
:103B7000000080618061806180618061806180611E
:103B80008063807F803D0000000000000000000096
:103B9000000000000000C060803180318031001BD7
:103BA000001B001B000E000E0006000000000000BD
:103BB0000000000000000000000080DD80DD80DDEE
:103BC00000550055005500770077002200220000C4
:103BD0000000000000000000000000000000806104
:103BE00000330033001E000C000C001E00330033B5
:103BF00080610000000000000000000000000000E4
:103C000080618061803100330033001B001B001B8A
:103C1000000E000E000E001C007C00700000000072
:103C2000000000000000C07FC07F8001000300068C
:103C3000000C00180030C07FC07F000000000000B2
:103C40008003800700060006000600060006000E3E
:103C5000001C001C000E0006000600060006000600
:103C60008007800300060006000600060006000626
:103C70000006000600060006000600060006000614
:103C800000060006000600060038003C000C000C90
:103C9000000C000C000C000E00070007000E000CCA
:103CA000000C000C000C000C003C00380000000070
:103CB000000000000000000000008038807F004706
:103CC00000000000000000000000000000000000F4
:103CD00038B50400002C01D10120E0E094F83D004B
:103CE000002805D1002084F83C00200000F06EFB85
:103CF000242084F83D0020680068400840002168C6
:103D000008602068006850F400402168086020685E
:103D1000006830F400402168086000F07FFE010078
:103D2000DFF87C216068904208D2DFF87801814298
:103D300001D2012000E00020C0B207E0DFF86801F6
:103D4000814201D2012000E00020C0B2012801D14F
:103D50000120A4E0DFF85401B1FBF0F320684068D3
:103D6000800980011843256868602068056A6068DA
:103D7000904201D25B1C07E04FF4967043434FF42E
:103D80007A70B3FBF0F35B1CAD09AD012B432068E7
:103D900003622068C3696068904214D2481E62685A
:103DA0005200B0FBF2F0401C0005000D042801D2C7
:103DB00004213EE0491E60684000B1FBF0F1491C5F
:103DC0000905090D35E0A068002809D14A1E65687B
:103DD00003204543B2FBF5F0401C0005000D0AE04E
:103DE0004A1E656819204543B2FBF5F0401C0005EA
:103DF000000D50F48040000501D1012119E0A068B8
:103E0000002809D1491E626803204243B1FBF2F148
:103E1000491C0905090D0AE0491E62681920424340
:103E2000B1FBF2F1491C0905090D51F4804151F42F
:103E30000041DFF87C0003400B432068C361206829
:103E4000016831F0C001E0690143206A0143206844
:103E5000016020688168DFF85C000140206901434F
:103E6000E0680143206881602068C168090A09028E
:103E7000A2696069024311432068C160206800683C
:103E800050F001002168086000202064202084F8A0
:103E90003D0000202063002084F83E00002032BD59
:103EA000A186010080841E0000093D0040420F00F1
:103EB0000030FFFF007CFFFF2DE9FE4305000C00F2
:103EC0009046994600F0F6FD060095F83D00202842
:103ED00040F0A380009619230122DFF84811280042
:103EE00000F015F9002801D0022097E095F83C0079
:103EF000012801D1022091E0012085F83C002868CA
:103F00000068C00705D42868006850F001002968DF
:103F100008600C9F0B98DDF828C04B4642462100F4
:103F20002C68246834F40064D5F800E0CEF8004032
:103F3000212485F83D40402485F83E4000242C642F
:103F4000C5F824C06885688D2885DFF8D400E8624C
:103F5000019600979BB292B289B2280000F064F8F3
:103F6000002822D0012059E0686A00782968086199
:103F7000686A401C6862288D401E2885688D401E36
:103F800068852868406940070FD5288D00280CD027
:103F9000686A007829680861686A401C6862288D30
:103FA000401E2885688D401E6885288D002811D008
:103FB00032003900280000F04CF90028D4D0286CD9
:103FC000042805D12868006850F40070296808604A
:103FD000012023E032003900280000F066F90028B3
:103FE0000AD0286C042805D12868006850F40070B5
:103FF00029680860012011E02868006850F400700A
:1040000029680860202085F83D00002085F83E00E2
:10401000002085F83C00002000E00220BDE8FE837F
:104020000000FFFF020010002DE9F843040089465C
:1040300015001E00089FDDF824802068006850F4F9
:10404000807021680860CDF800803B0000225FF09E
:104050000111200000F05BF8002808D020680068FB
:10406000C00502D54FF40070206403204DE019F024
:10407000FE092068C0F8109043463A00DFF8841229
:10408000200000F089F8002801D001203DE0002048
:104090000090206840690090206880690090009836
:1040A00042463900200000F0D4F800280AD0206CE5
:1040B000042805D12068006850F400702168086069
:1040C000012022E0B6B2012E03D1EDB220680561D5
:1040D0001AE0280080B2000AC0B221680861424696
:1040E0003900200000F0B5F800280AD0206C042820
:1040F00005D12068006850F4007021680860012034
:1041000003E0EDB2206805610020BDE8F2832DE9EF
:10411000F04105000E0017001C00DDF8188030008B
:10412000000CC0B201280AD128684069304080B232
:10413000B1B2884201D101200BE0002009E02868DB
:104140008069304080B2B1B2884201D1012000E0E4
:1041500000203900C9B288421BD114F1010FDED012
:1041600000F0A8FCB0EB0800844201D3002CD6D1AB
:1041700000202863202085F83D00002085F83E00BF
:10418000286C50F020002864002085F83C000120B5
:1041900000E00020BDE8F081F8B505000E00140035
:1041A0001F003000000CC0B201280AD12868406905
:1041B000304080B2B1B2884201D101200BE0002032
:1041C00009E028688069304080B2B1B2884201D1EC
:1041D000012000E00020002839D12868406940050E
:1041E0001AD52868006850F40070296808607FF4C8
:1041F00080602968486100202863202085F83D0000
:10420000002085F83E00286C50F00400286400204F
:1042100085F83C0001201BE014F1010FC1D000F033
:1042200049FCC01B844201D3002CBAD10020286372
:10423000202085F83D00002085F83E00286C50F0D5
:1042400020002864002085F83C00012000E00020C8
:10425000F2BD70B505000C00160028684069000624
:1042600021D4280000F050F8002801D001201BE0E4
:1042700014F1010FF1D000F01DFC801B844201D32A
:10428000002CEAD100202863202085F83D00002082
:1042900085F83E00286C50F020002864002085F846
:1042A0003C00012000E0002070BD70B505000C004E
:1042B000160028684069400721D4280000F024F83F
:1042C000002801D001201BE014F1010FF1D000F013
:1042D000F1FB801B844201D3002CEAD1002028632B
:1042E000202085F83D00002085F83E00286C50F025
:1042F00020002864002085F83C00012000E0002018
:1043000070BD00000200010001684969490514D52B
:104310007FF480610268516100210163202180F8EF
:104320003D10002180F83E10016C51F00401016441
:10433000002180F83C10012000E0002070470000C0
:1043400081B04D48016851F001010160006810F032
:104350000100009000984948016851F080510160C7
:10436000006810F08050009000984549086830F0CF
:10437000E06050F00070086001B0704718B585B07B
:10438000040001A8102100F09BFB20683D498842F1
:104390001AD13948016851F400710160016811F4C3
:1043A000007100910099016851F0040101600068FA
:1043B00010F004000090009801200190032002906A
:1043C00001A9314800F080FB06B010BD18B585B0DA
:1043D000040001A8102100F073FB20682B498842DB
:1043E0001DD12548016851F008010160006810F0F6
:1043F000080000900098C020019012200290032035
:10440000049001A9224800F05FFB1C48016851F4A8
:1044100000110160006810F400100090009806B0D0
:1044200010BD80B500681B49884211D1124801684F
:1044300051F400610160006810F400600090009881
:1044400000220021192000F0C0FC192000F0CEFC51
:1044500001BD81B000681049884209D10748016850
:1044600051F400610160006810F400600090009851
:1044700001B0704700000000181002401C100240FC
:1044800004000140002401400008014000540040A5
:10449000000C0140002C0140002C00402DE9FC41A3
:1044A0000400002C01D10120DFE12078C0076BD58A
:1044B000DFF8BC05016811F00C01042907D0016880
:1044C00011F00C0108290CD10068C00309D5DFF8F0
:1044D0009C050068800357D56068002854D10120EE
:1044E000C3E16068B0F5803F06D1DFF88005016860
:1044F00051F48031016026E0606800280AD1DFF8BD
:104500006C05016831F480310160016831F480216B
:10451000016018E06068B0F5A02F0AD1DFF84C0503
:10452000016851F480210160016851F4803101601B
:1045300009E0DFF83805016831F480310160016875
:1045400031F480210160606800280ED000F0B2FADA
:104550000500DFF818050068800315D400F0AAFAFA
:10456000401B6528F5D303207FE100F0A3FA050086
:10457000DFF8F8040068800306D500F09BFA401BC2
:104580006528F5D3032070E1207880071ED5DFF879
:10459000E004016811F00C0F07D0016811F00C0164
:1045A00008292CD10068C00329D4DFF8C0040168B1
:1045B000890704D52169012901D0012055E101684D
:1045C00031F0F801626951EAC20101602078000708
:1045D00049D5A069002871D00120DFF8A81408602F
:1045E00000F068FA0500DFF898040068800737D407
:1045F00000F060FA401B0328F5D3032035E1206961
:1046000000281AD00120DFF88014086000F052FA68
:104610000500DFF858040168890706D400F04AFA5B
:10462000401B0328F5D303201FE1016831F0F80196
:10463000626951EAC2010160C8E70020DFF848144E
:10464000086000F037FA0500DFF8200400688007F2
:10465000BCD500F02FFA401B0328F5D3032004E15A
:10466000012000F0F1F92078400740F19680002603
:10467000DFF818542868C00009D4286850F080502A
:104680002860286810F08050009000980126DFF81C
:1046900000743868C00524D4386850F480703860DD
:1046A00000F008FA80463868C0051AD400F002FA13
:1046B000B0EB08006528F6D30320D6E00020DFF831
:1046C000C413086000F0F6F90500DFF8B4030068D1
:1046D0008007C8D500F0EEF9401B0328F5D303206E
:1046E000C3E0E068012806D1DFF8A803016851F0B3
:1046F0000101016025E0E06800280AD1DFF8940399
:104700000168490849000160016831F00401016055
:1047100017E0E06805280AD1DFF87803016851F056
:1047200004010160016851F00101016009E0DFF856
:1047300064030168490849000160016831F004011F
:104740000160E068002810D000F0B4F90700DFF83D
:1047500044030068800719D400F0ACF9C01B41F293
:1047600089318842F3D303207FE000F0A3F90700EA
:10477000DFF820030068800708D500F09BF9C01B14
:1047800041F289318842F3D303206EE0F6B2012E64
:1047900003D1286830F080502860E069002863D099
:1047A000DFF8CC62306810F00C0008284AD0E069CD
:1047B000022834D1DFF8E0720020386000F07AF986
:1047C0008046DFF8A8522868800107D500F072F90A
:1047D000B0EB08000328F4D3032046E0206AB0F5CC
:1047E000803F05D1316831F40031A0680143316068
:1047F000316831F47411206A0143606A0143316009
:104800000120386000F056F90400286880012BD49C
:1048100000F050F9001B0328F7D3032025E0002007
:10482000DFF87412086000F045F90400DFF83C027C
:104830000068800118D500F03DF9001B0328F5D36E
:10484000032012E0E069012801D101200DE0306869
:1048500010F48031226A914204D110F47010616A20
:10486000884201D0012000E00020BDE8F6812DE95A
:10487000F04104000E00002C01D1012098E0DFF887
:104880001C52286810F00700B0420BD22868C008FC
:10489000C00030432860286810F00700B04201D003
:1048A000012085E02078800716D52078400704D5C0
:1048B0006F48016851F4E06101602078000704D579
:1048C0006B48016851F46051016069490A6832F02F
:1048D000F002A06802430A602078C00732D5606801
:1048E000012805D161480068800310D401205FE0F1
:1048F0006068022805D15D480068800107D4012066
:1049000056E05A480068800701D4012050E0584F13
:1049100039688908890060680143396000F0CAF885
:104920008046386810F00C006168B0EB810F09D048
:1049300000F0C0F8B0EB080041F289318842F0D3B2
:10494000032035E0286810F0070086420BD2286863
:10495000C008C00030432860286810F00700B0424B
:1049600001D0012024E02078400706D540490A689C
:1049700032F4E062E06802430A602078000707D55D
:104980003B48016831F46051226951EAC20101607B
:1049900000F010F84249364A1268C2F30312895CEB
:1049A000C840354908603548006800F039FA0020F1
:1049B000BDE8F08100B585B001A83A491022FDF7A5
:1049C000DDFE39480088ADF80000002000200020FE
:1049D00000200020264A116811F00C00042802D0A3
:1049E000082802D014E0234813E001A8C1F3834350
:1049F000C05CC90309D569461268C2F340428A5CAB
:104A00001C494843B0FBF2F001E02849484300E06C
:104A1000184805B000BD18480068704780B5FFF71A
:104A2000FAFF2349124A1268C2F30222895CC84085
:104A300002BD80B5FFF7EFFF1D490D4A1268C2F3B2
:104A4000C222895CC84002BD81B00B490968C9080F
:104A50004FF47A72B1FBF2F14843009000BF009826
:104A6000411E00910028F9D101B0704700100240AA
:104A70000410024000127A002800002024000020C8
:104A80002410024080044242000042421C100240B6
:104A900000700040201002406000424200200240AE
:104AA000E06E0008C06E00082E23000800093D00DB
:104AB0007C6F000801480068704700BF8803002031
:104AC000002200F0D3B90000F8B502000023002551
:104AD00013E0DFF8DC01066836EA040404600BE04A
:104AE000DFF8D0010668A643066048688002F0D56A
:104AF0006F480668344304605B1C0868D84000288F
:104B000000F0B38001269E400C683440B442F3D1DB
:104B10004868002827D001281AD002281DD0032871
:104B20002FD0112816D012281AD0634FB8421AD0AD
:104B3000624FB84217D0624FB84214D0614FB842AA
:104B400011D0614FB8420ED0604FB8420BD01AE07E
:104B5000CD6818E0CD682D1D15E0CD68083512E050
:104B6000CD680C350FE08868002801D1042507E0E6
:104B70008868012802D10825166101E008255661E0
:104B800001E00025FFE7B4F5807F01D2170000E0C7
:104B9000171DB4F5807F02D25FEA830C03E0B3F106
:104BA000080C5FEA8C0C0F26D7F800E016FA0CF020
:104BB0003EEA000E15FA0CFC5CEA0E0CC7F800C0C9
:104BC0004868C00098D54248076857F00107076059
:104BD000006810F00100009000983E4F1800800817
:104BE00057F820C013F00300C0B2800086403CEAB2
:104BF000060C3948824201D100260AE03748824239
:104C000001D1012605E03648824201D1022600E0AA
:104C1000032613F00300C0B28000864056EA0C0C55
:104C20001800800847F820C04868C00304D52D4804
:104C300006682643066003E02A480668A643066025
:104C40004868800304D5284806682643066003E0C8
:104C500025480668A64306604868C0027FF540AF55
:104C600014480668264306603FE7F1BD806889B2B4
:104C7000084201D0012000E00020C0B27047D2B24B
:104C8000002A02D089B2016102E089B209040161FF
:104C9000704780B515490A6803009BB21A4205D0D7
:104CA000020092B20A6080B200F022F801BD00005A
:104CB0000C04014008040140000011100000121013
:104CC00000002110000022100000311000003210FE
:104CD000181002400800014000080140000C01408B
:104CE000001001400004014004040140140401408C
:104CF0007047000010F00700414B1A684FF6FF01A3
:104D00000A40404951EA00210A431A6070473C4872
:104D10000068C0F302207047010049B2002908D49E
:104D2000012210F01F018A40374940B2400941F882
:104D300020207047020052B2002A04D40901334AED
:104D400040B2115407E00901314A40B210F00F009F
:104D5000104400F8041C704710B410F00700D0F1A4
:104D60000703052B01D3042301E0D0F10703041D41
:104D7000072C01D2002000E0C01E012414FA03F326
:104D80005B1E1940814014FA00F0401E1040084399
:104D900010BC704780B5411EB1F1807F01D3012066
:104DA0000EE0401E1B4908600F215FF0FF30FFF747
:104DB000C1FF00201849086007201849086000203A
:104DC00002BD80B5FFF796FF01BD70B504000D0070
:104DD00016000020FFF79BFF32002900FFF7BCFF01
:104DE0000100200040B2FFF7A5FF70BD80B540B2C2
:104DF000FFF792FF01BD80B5FFF7CCFF02BD0000B9
:104E00000CED00E00000FA0500E100E000E400E045
:104E100018ED00E014E000E018E000E010E000E031
:104E200010B504004FF47A700D490978B0FBF1F029
:104E30000C490968B1FBF0F0FFF7DDFF002801D055
:104E400001200CE0102C09D2002221005FF0FF307D
:104E5000FFF7BBFF04480460002000E0012010BD04
:104E600064000020280000202400002000B500BFBE
:104E7000130096469446103928BFA0E80C50FAD883
:104E80005FEA417C28BF0CC048BF40F8042BC9072B
:104E900028BF20F8022B48BF00F8012B00BD0000FE
:104EA000F8B504000020002500260027002C01D1C1
:104EB000012090E0A068002801D0207D0028A06A91
:104EC000002807D10020E062002084F824002000A0
:104ED000FFF754FA200000F0E5FAA16AC90674D47D
:104EE0000100C9B2002970D1A16A31F4885151F092
:104EF0000201A1626268E1690A43217B52EA410230
:104F00001643A168B1F5807F02D0A168012902D1C2
:104F10004FF4807100E000210D43217D012911D162
:104F2000217B002906D1A169491E490351F4006182
:104F30000D4307E0A16A51F02001A162E16A51F03E
:104F40000101E1622168496831F469410D4321683A
:104F50004D6021688A68DFF818150A4032432168DD
:104F60008A60A168B1F5807F02D0A168012902D1D1
:104F70004FF4807100E00021B1F5807F02D12769F4
:104F80007F1E3F052168C96A31F470010F43216813
:104F9000CF6221688A68DFF8DC140A40B24208D187
:104FA0000021E162A16A31F0020151F00101A16228
:104FB00010E0A06A30F0020050F01000A062E06A39
:104FC00050F00100E062012004E0A06A50F01000FF
:104FD000A0620120C0B2F2BD10B50400002094F818
:104FE0002400012801D1022086E0012084F8240059
:104FF000200000F001FA0100C9B2002978D1A26AAC
:10500000DFF874140A4052F48072A262DFF86C2454
:105010002168914209D1DFF86814096811F4702FF2
:1050200001D1012102E0002100E0012100290ED080
:10503000A16A31F48011A16221684968490521D52E
:10504000A16A31F4005151F48051A1621AE0A16AC1
:1050500051F48011A1622168DFF82834994202D00E
:105060002168914205D1DFF81814096811F48061B4
:1050700000E00021002905D0A16A31F4005151F46B
:105080008051A162A16AC90404D5E16A31F0060128
:10509000E16201E00021E162002184F824107FF048
:1050A0000201236819602168896811F46021B1F553
:1050B000602F16D12168914209D1DFF8C413096825
:1050C00011F4702F01D1012102E0002100E0012143
:1050D000002906D02168896851F4A00122689160F6
:1050E00009E02168896851F480112268916002E02A
:1050F000002184F82410C0B210BD10B504000020B7
:1051000094F82400012801D1022013E0012084F842
:105110002400200000F0C6F90100C9B2002905D121
:10512000A16A31F4885151F00101A162002184F893
:105130002410C0B210BDF8B505000C0000200020FE
:1051400000900020FFF7B6FC060028688068C005C4
:1051500008D5A86A50F02000A862002085F8240035
:1051600001209CE028684068C0051FD42868C06AF8
:1051700010F4700F1AD128680068800771D414F1F8
:10518000010FF8D0002C04D0FFF794FC801B844260
:10519000F1D2286800688007EDD4A86A50F00400B6
:1051A000A862002085F82400032078E0022000F0A7
:1051B0001AFA29680969DFF8D022114215D1296845
:1051C000C968DFF8C82211420FD129680969DFF8E0
:1051D000C022114207D12968C968DFF8B8221142FC
:1051E00001D114211AE0292118E029680969DFF8A2
:1051F000A022114205D12968C968DFF8982211421E
:1052000009D0DFF894122A6812690A4205D12A6887
:10521000D2680A4201D1542100E0FC21DFF87C224F
:105220001268B2FBF0F74F4302E00098401C009078
:105230000098B84215D214F1010FF6D0002C04D01A
:10524000FFF738FC801B8442EFD20098B842ECD2C2
:10525000A86A50F00400A862002085F8240003200A
:105260001DE07FF0120029680860A86A50F4007001
:10527000A8622868806810F46020B0F5602F0DD116
:10528000287B00280AD1A86A30F48070A862A86A36
:10529000C00403D4A86A50F00100A8620020F2BD47
:1052A0000068C06C704778B4020008000021002339
:1052B000009392F82430012B01D102209AE00123BF
:1052C00082F824304368072B12D213685C6B1F25C9
:1052D00043685E1E05235E43B540AC4305684368E2
:1052E0005E1E05235E43B5402C4313685C6329E0D2
:1052F00043680D2B12D213681C6B1F254368DE1FF9
:1053000005235E43B540AC4305684368DE1F0523B3
:105310005E43B5402C4313681C6313E01368DC6ADA
:105320001F254368B3F10D0605235E43B540AC432A
:1053300005684368B3F10D0605235E43B5402C4371
:105340001368DC6203680A2B14D31368DC68072532
:105350000368B3F10A0603235E43B540AC43856896
:105360000368B3F10A0603235E43B5402C43136878
:10537000DC600FE013681C690725066803235E43A1
:10538000B540AC438568066803235E43B5402C43B3
:1053900013681C610368102B02D00368112B24D101
:1053A0001368384CA3421BD113689B681B021CD4A2
:1053B00013689B6853F400031468A3600068102806
:1053C00013D136480068364BB0FBF3F30A20434351
:1053D00000930098002808D00098401E0090F8E73D
:1053E000906A50F0200090620121002082F8240091
:1053F0000800C0B272BC704738B50400002000201D
:10540000009020688068C0072FD42068806850F022
:10541000010021688860214800682149B0FBF1F053
:10542000009002E00098401E009000980028F9D1FA
:10543000FFF740FB050020688068C00715D4FFF720
:1054400039FB401B0328F6D320688068C007F2D4DC
:10545000A06A50F01000A062E06A50F00100E06223
:10546000002084F82400012000E0002032BD00006C
:10547000FDF7E1FFFE0E1FFFFEFDFFFF00280140CC
:10548000042401400024014024499224244992002C
:1054900092244912922449004992240028000020B5
:1054A00040420F0038B50400002020688068C00723
:1054B0001FD5206880684008400021688860FFF799
:1054C000F9FA050020688068C00712D5FFF7F2FAE4
:1054D000401B0328F6D320688068C007F2D5A06A75
:1054E00050F01000A062E06A50F00100E06201207C
:1054F00000E0002032BD00002DE9FC410400002046
:1055000000202078C00757D500266D4D2868C000C0
:1055100009D4286850F080502860286810F0805026
:10552000009000980126674F3868C00511D438688C
:1055300050F480703860FFF7BDFA80463868C005C7
:1055400007D4FFF7B7FAB0EB08006528F6D30320BD
:1055500047E05D4F386810F4407000281FD0616844
:1055600011F4407188421AD0386830F440705749BD
:1055700001220A6000220A603860C0070FD5FFF7D9
:1055800099FA80463868800709D4FFF793FAB0EBA0
:10559000080041F289318842F4D3032021E03968C0
:1055A00031F44071606801433960F6B2012E03D1D5
:1055B000286830F0805028602078800706D544495C
:1055C0000A6832F44042A06802430A602078C006AC
:1055D00006D53F490A6832F48002E06802430A6057
:1055E0000020BDE8F68130B585B0040001A8394936
:1055F0001022FDF7C3F838480088ADF800000020FD
:105600000021002000200020012C28D0022C49D0AD
:10561000102C52D12E4A1368304C2468E4011DD559
:1056200001A8C3F38344045DD8030BD5684615680D
:10563000C5F34045405DDB0307D52949B1FBF0F1D7
:10564000614302E02100274841431068400201D530
:10565000080003E048000321B0FBF1F02DE01A49F7
:10566000096840F202320A40B2F5817F02D14FF45C
:10567000004016E011F44072B2F5007F06D11A4ADC
:105680001268920702D549F640400AE011F44071D1
:10569000B1F5407F05D111490968890301D54FF261
:1056A00024400AE0FFF7C5F909490968C1F38131CF
:1056B000491C4900B0FBF1F0FFE705B030BD000028
:1056C0001C10024000700040201002404004424282
:1056D00004100240D06E00085A2700080010024053
:1056E00000127A0000093D002410024010B5DFF8D6
:1056F0001C0400F095FADFF8180400F07DFC00F0BF
:105700001CFD002000F07CFD00210A2000F083FE3B
:10571000DFF800440123D4E900010A000100DFF8AA
:10572000F80300F05FFE00F07CFD0E210A2000F07F
:1057300072FE0123D4E900010A000100DFF8DC0356
:1057400000F050FE00F06DFD40F26C7000F0E8FEDD
:105750000020DFF8CC13086010BDFEB5DFF8C403ED
:1057600001681F2922DB002101600221DFF8B80354
:10577000FFF77CFA002815D0DFF8B013086800287E
:1057800014D101200860DFF898030168491C01600A
:105790000021DFF89C2311600168042906DB002149
:1057A000016003E00020DFF884130860DFF8800365
:1057B00001684EF66122914215DB00210160002054
:1057C00000F01EFD002000F094FEDFF840432000B2
:1057D00000F058FA200000F00CFA00F0B5FE0121AC
:1057E000012000F0BCFEDFF84C03016840F22D12EE
:1057F0009142C0F2868100210160DFF83C136846C7
:1058000000F005FF0198002101F00AF804D000988B
:10581000002101F005F804D1C8480168491C016065
:1058200002E00020C5490860C4480068042805DB80
:10583000C348C44901600168416004E0C04801995F
:10584000416000990160B24E3000FFF7C5FB4FF494
:105850007A713000FFF76FFC3000FFF721FDBA4C82
:10586000BA4D216845F821003000FFF746FC0021C1
:10587000002203E055F822004118521C052AF9DBEA
:105880002068042803DA2068401C206001E0002022
:105890002060AF4C052091FBF0F02060002000F06C
:1058A000AFFC9F480068002808D0022800F0DC8088
:1058B000C0F0B380032800F0FE8020E1A54EA04D8B
:1058C0006868310000F0BAFF08D2686800F0C8FFCD
:1058D0000200A14901A800F0D9FF07E0686800F0C4
:1058E000BFFF020087A101A800F0D0FF02210A201B
:1058F00000F091FD994F0123D7E900010A00010052
:1059000001A800F06FFD2868310000F097FF08D271
:10591000286800F0A5FF0200914901A800F0B6FF39
:1059200007E0286800F09CFF020077A101A800F0C2
:10593000ADFF02214A2000F06EFD0123D7E90001EE
:105940000A00010001A800F04DFD206840F6B931C1
:10595000884202DA40F6B830206040F67460216870
:10596000814200DB2060206840F67561884202DADF
:105970007F207C4908602068B0F5616F02DA6C20F6
:1059800078490860206840F6AC51884202DA5A2013
:1059900074490860206840F64851884202DA48207D
:1059A00070490860206840F6E441884202DA3620F7
:1059B0006C4908602068B0F5486F02DA2420694914
:1059C0000860206840F61C41884202DA12206549CE
:1059D00008606448016825290ADB012100911F2322
:1059E00000680200D2B21F21002000F01BFD13E06E
:1059F0005D4C216803290CDB012100911F23006805
:105A00000200D2B21F21002000F00CFD0020206017
:105A100002E02068401C206071E0494A50684D490E
:105A200000F00CFF09D2506800F050FF02000B009C
:105A30004E4901A800F02AFF08E0506800F046FF38
:105A400002000B004A4901A800F020FF02210D20AE
:105A500000F0E1FC01234148D0E9004521002A0083
:105A600001A800F0BFFC4AE0354A1068394900F04F
:105A7000E5FE09D2106800F029FF02000B003D4945
:105A800001A800F003FF08E0106800F01FFF02000B
:105A90000B00394901A800F0F9FE0221112000F0A5
:105AA000BAFC01232D48D0E9004521002A0001A8B5
:105AB00000F098FC23E02268304901A800F0E6FEDF
:105AC0000021022000F0A7FC124C0123D4E90001C0
:105AD0000A00010001A800F085FC2248026828495C
